:020000040800F2
:1000000000040020851900087319000875190008FC
:1000100077190008791900087B1900080000000012
:100020000000000000000000000000007D19000832
:100030007F190008000000008119000883190008DA
:10004000B5190008B9190008BD190008C119000840
:10005000C5190008C9190008CD190008D1190008F0
:10006000D5190008D9190008DD190008E1190008A0
:10007000E5190008E9190008ED190008F119000850
:10008000F5190008F9190008FD190008011A0008FF
:10009000051A0008091A00080D1A0008111A0008AC
:1000A000151A0008191A00081D1A0008211A00085C
:1000B000251A0008291A00082D1A0008311A00080C
:1000C000351A0008391A00083D1A0008411A0008BC
:1000D000451A0008491A00084D1A0008511A00086C
:1000E000551A0008591A00085D1A0008611A00081C
:1000F000651A0008691A00086D1A0008711A0008CC
:10010000751A0008791A00087D1A0008811A00087B
:10011000851A0008891A00088D1A0008911A00082B
:10012000951A0008991A00089D1A0008A11A0008DB
:100130000020DFF8281608800020DFF82416088049
:100140000020DFF8201608800020DFF81C16087059
:100150000020DFF8181608705520DFF81416087014
:10016000704780B5DFF80C0600F0D2FBD0F50070C8
:10017000DFF8E8150880DFF8E4050088B0F5007FB7
:1001800003DB0020DFF8D415088001BD80B5DFF85F
:10019000E8050088002813D00021DFF8E00500F012
:1001A000AAFBDFF8D4050088DFF8D4150860012128
:1001B000DFF8C80500F09FFB0020DFF8BC150880C1
:1001C00001BD70B402004FF6FF7630004AF201061E
:1001D000330000263400C9B28C4213D2A65C7040B2
:1001E00000263500082D0BD2C60704D54008400470
:1001F000400C584002E040084004400C6D1CF1E700
:10020000641CE8E770BC7047DFF88005DFF88015F4
:100210000860704710B5AA20DFF8781508705520DF
:10022000DFF8701548700620DFF868158870DFF871
:1002300068050078DFF85C15C870AA20DFF854154F
:100240000871AA20DFF84C154871DFF8480581785D
:10025000DFF84005FFF7B5FF0400DFF838058471CB
:10026000A4B2200ADFF82C15C871DFF828058078C1
:10027000801CDFF804150880AA20DFF8EC14087051
:1002800010BD38B5DFF8FC040079DFF8F8144979BF
:1002900011EB0020DFF804150880DFF8E80480780F
:1002A000801F0400A4B22100DFF8F40400F0D4FCA5
:1002B0000500EDB2552D38D1AA20DFF8D81408700A
:1002C0005520DFF8D01448700620DFF8C814887075
:1002D000A220DFF8C014C870DFF8C004008880B224
:1002E000000ADFF8B0140871DFF8B0040088DFF806
:1002F000A4144871DFF89C048178DFF89804FFF7B4
:1003000060FF0400DFF88C048471A4B2200ADFF8D7
:100310008414C871DFF87C048078801CDFF85814DE
:100320000880AA20DFF84014087031BD10B5AA205B
:10033000DFF8601408705520DFF858144870082062
:10034000DFF850148870A420DFF84814C87000202B
:10035000DFF8401408710020DFF8381448710020DD
:10036000DFF8301488710020DFF82814C871DFF836
:1003700024048178DFF81C04FFF723FF0400DFF872
:1003800014040472A4B2200ADFF808144872DFF8DB
:1003900004048078801CDFF8E0130880AA20DFF8CE
:1003A000C813087010BD10B5DFF8D8030079012814
:1003B00037D1DFF8D0034079552832D1AA20DFF8B1
:1003C000D41308705520DFF8CC1348700620DFF8EE
:1003D000C4138870A320DFF8BC13C8700120DFF8B5
:1003E000B4130871AA20DFF8AC134871DFF8A40336
:1003F0008178DFF8A003FFF7E4FE0400DFF8940340
:100400008471A4B2200ADFF88C13C871DFF884036A
:100410008078801CDFF860130880AA20DFF848137A
:100420000870DFF860030079022834D1DFF8540344
:10043000407955282FD1AA20DFF85813087055208D
:10044000DFF8501348700620DFF848138870A320A7
:10045000DFF84013C8700220DFF838130871AA20B3
:10046000DFF830134871DFF82C038178DFF82403BC
:10047000FFF7A7FE0400DFF81C038471A4B2200A72
:10048000DFF81013C871C3488078801CBA4908800F
:10049000AA20B549087010BD2DE9F047FFF761FEAD
:1004A000FFF774FE4FF4005000F035FA002806D034
:1004B0000020AD4908704FF4005000F041FAAA48FE
:1004C0000078002840F04681A4480088A5490988A2
:1004D000884200F03F81A6480078552841D19F48C6
:1004E000008806009F4800880700B6B2BFB2BE422F
:1004F00004D216F50070C01B804601E0F01B804658
:10050000B9461FFA89F91FFA88F8BFB217EB08003D
:10051000814526DA9C4893490988085CAA2812D1AB
:1005200090480088401CC005C00D0400B6B2A4B2BB
:10053000A64216D09448A4B2205C552803D1AA2024
:100540008B4908700DE087480088401C8549088069
:1005500084480088C005C00D8249088019F101094E
:10056000CFE783480078AA2830D17C48008806006D
:100570007C480088B6B2864206D216F500707949EA
:100580000988401A804603E076480088301A804681
:100590001FFA88F8B8F1070F17DB72480088801C33
:1005A000C005C00D824678481FFA8AFA1AF8000082
:1005B000801C1FFA88F880B2804507D355206C490B
:1005C0000870AA207749087000E0C3E075480078F9
:1005D000AA2840F0BF805520654908705520714910
:1005E0000870AA20704908705E480088C01CC005C9
:1005F000C00D05006448ADB2285CFF286AD0594898
:100600000088801CC005C00D04005F48A4B2205CB7
:10061000544909880818801C82465248008881463F
:100620001FFA89F91FFA8AFAD14525D21FFA89F9EA
:10063000B9F5007F0DDA54481FFA89F919F800005E
:1006400050491FFA89F9474A1288B9EB02025054FF
:100650000FE04D481FFA89F919EB0000B0F5007062
:10066000007848491FFA89F93E4A1288B9EB02021C
:10067000505419F10109D3E73A4800884149897873
:10068000891C08183749088036480088C005C00D05
:10069000344908803B4881783A48FFF792FD82460A
:1006A00050463849374A9278515CC0B288420BD1E3
:1006B0001FFA8AFA5FEA1A203249324A92785118B0
:1006C0004978C0B2884200D044E02E48C0781C2847
:1006D0001ED10BE023480088C01D22490880214814
:1006E0000088C005C00D1F49088033E02548007907
:1006F000032809D123484079552805D101202B49E9
:100700000870FFF781FD25E002202849087021E0EC
:100710001C48C0780D2802D1FFF77CFD1AE00220AA
:10072000224908701748C078222802D1FFF7A9FD96
:1007300010E01448C078242802D1FFF7F7FD09E043
:100740001048C078232802D1FFF72DFE02E00220D6
:1007500016490870BDE8F08700000000241E002044
:100760002C1E0020281E0020381E0020431E0020C2
:100770003F1E002058000240301E0020440002406E
:10078000480002401C1C00201C1A00200400FA052E
:100790000CED00E0000000203E1E00203A1E00206C
:1007A000221C0020401E0020421E0020411E00206E
:1007B0000168490849000160002101600021416091
:1007C000002181600021C1606149884206D16149F0
:1007D000096851F00F015F4A11606CE05E49884280
:1007E00006D15C49096851F0F0015A4A116062E093
:1007F0005A49884206D15749096851F47061554AEF
:10080000116058E05649884206D15249096851F4AE
:100810007041504A11604EE05249884206D14D491C
:10082000096851F470214B4A116044E04E498842F6
:1008300006D14849096851F47001464A11603AE00E
:100840004A49884206D14349096851F07061414ADA
:10085000116030E04649884206D14649096851F0A6
:100860000F01444A116026E04349884206D14149BC
:10087000096851F0F0013F4A11601CE03F4988428D
:1008800006D13C49096851F470613A4A116012E09E
:100890003B49884206D13749096851F47041354ACD
:1008A000116008E03749884205D13249096851F49E
:1008B0007021304A1160704710B4002203681A009A
:1008C0006FF30E128B680C6A23430C6923434C6947
:1008D00023438C692343CC6923434C6A23438C6AAA
:1008E00023431A430260CB6843600B6883604B6804
:1008F000C36010BC7047C9B2002904D0026852F02E
:100900000102026003E00268520852000260704770
:10091000406880B27047010000200022CB0003D560
:10092000194B1B681A0002E0184B1B681A000A4298
:1009300002D00123180001E000231800C0B2704764
:10094000C10002D50B49086001E002490860704708
:1009500008000240040002401C0002403000024037
:1009600044000240580002406C00024080000240F7
:1009700008040240040402401C0402403004024007
:1009800044040240580402400004024000000240B7
:1009900000887047F8B504000D001600002007001D
:1009A000BFB2B6B2B74208D2BFB235F817102000B6
:1009B00000F0E4FAA41C7F1CF2E7F1BDF8B50400D6
:1009C0000D00160000200700BFB2B6B2B74208D231
:1009D0002000FFF7DDFFBFB225F81700A41C7F1C25
:1009E000F2E7F1BD2DE9F84F04000D001600B4F157
:1009F000006F03D3DFF8C804844200D396E000F010
:100A000077FAB4F1006083465FEADB2007004FF419
:100A10000060BBFBF0F101FB10B148088046D8F53F
:100A2000806081461FFA89F9B6B2B14500D3B1465C
:100A30004FF48062DFF88C144FF4006000FB07F085
:100A400010F10060FFF7BAFF002082461FFA8AFA11
:100A50001FFA89F9CA4510D2DFF868041FFA88F82E
:100A60001FFA8AFA1AEB080130F811004FF6FF71ED
:100A7000884202D11AF1010AE8E71FFA8AFA1FFA3E
:100A800089F9CA452DD24FF4006000FB07F010F140
:100A9000006000F041FA002082461FFA8AFA1FFA2D
:100AA00089F9CA4510D2DFF81C041FFA8AFA1FFA26
:100AB00088F818EB0A011FFA8AFA35F81A2020F88C
:100AC00011201AF1010AE8E74FF48062DFF8F4130D
:100AD0004FF4006000FB07F010F10060FFF75AFFD1
:100AE00005E04A4692B229002000FFF753FFB6B254
:100AF0001FFA89F94E4502D100F005FA16E07F1C75
:100B0000002080461FFA89F915EB49051FFA89F97B
:100B100019EB0404B6EB0906B6B2B6F5806F03DD37
:100B20004FF48060814683E7B14681E7BDE8F18FED
:100B300010B402000024200000242300DBB2C9B25C
:100B40008B4204D2DBB29C5C20185B1CF6E7C0B27F
:100B500080B210BC70472DE9F84F04000D0016005C
:100B60001F000020ADF80000552080462100C9B2CA
:100B7000681CFFF7DDFFADF800006878C00702D5FC
:100B80006878401C6870BDF80000002805D000207F
:100B900038600020306000205CE0E878A97810EB35
:100BA000012082462879002808D001284AD002284E
:100BB0004BD004284AD0052849D049E0DFF8080383
:100BC0000088002809D1DFF804030068400502D13D
:100BD0005FEA4A5009D000203CE0BD4800881FFA77
:100BE0008AFA504501D0002034E06878C0B240084D
:100BF000C0B23860B648008869780818B4490880DF
:100C0000002083465FFA8BFB3868834519D25FFA70
:100C10008BFB15EB4B0040795FFA8BFB15EB4B011F
:100C2000897910EB01208146AA48A749098820F854
:100C30001190A5480088401CA34908801BF1010BB6
:100C4000E0E705E0AA20804602E001E000E0FFE7DF
:100C50004046C0B2BDE8F28F2DE9F0478CB00400E9
:100C60000D000020804620783A2801D00020A4E022
:100C7000681E814603A8009001AB02AA21004846E5
:100C8000FFF769FF82465FFA8AFABAF1550F43D13E
:100C90008D480088B0F5806F35D14FF480628D4962
:100CA0008A480068FFF79EFE4FF480628A498748B1
:100CB0000068FFF783FE00200600B6B2B6F5806F2D
:100CC00017DA8448B6B230F816008349B6B231F864
:100CD000161088420BD07E48008810387C49088066
:100CE00079480088083878490880002065E0761C3B
:100CF000E3E77648006810F500607449086000205A
:100D00007149088006E070480088B0F5806F01DD09
:100D1000002052E0552050E05FFA8AFABAF1AA0F9B
:100D20004AD1694802886B4968480068FFF75AFE53
:100D300065480288684965480068FFF73FFE002063
:100D4000060061480088B6B286420DD26148B6B24C
:100D500030F816006049B6B231F81610884201D05A
:100D600000202AE0761CECE75848006856490988BC
:100D700010EB41005549086054480068574908186D
:100D80004008070000F0B4F8554800F0C5F800210D
:100D9000534800F0F3F8534800F0BEF8390089B228
:100DA000514800F0EBF845F255514E4800F0E6F896
:100DB00000F0A9F8552000E000200CB0BDE8F08755
:100DC0002DE9F843040000F093F84FF48040814689
:100DD0005FEAD92005004FF40060B9FBF0F101FB98
:100DE000109148080600D6F580600700BFB2A4B293
:100DF000A74200D327004FF4806232494FF40060CD
:100E00003A4B00FB0530FFF7D9FD4FF4006000FBC3
:100E100005F010F1006000F07FF84FF4806229497E
:100E20004FF4006000FB05F010F10060FFF7B2FD29
:100E30004FF4806228494FF4006000FB05F010F188
:100E40000060FFF7BBFD002080461FFA88F8B8F568
:100E5000806F0EDA1B481FFA88F830F818001E4918
:100E60001FFA88F831F81810884226D118F10108C5
:100E7000EBE7A4B2BFB2BC4211D1194800F04CF864
:100E800045F25551164800F079F8164800F044F83C
:100E90000021144800F072F800F035F80DE06D1CE8
:100EA00000200600E41BA4B2B4F5806F03DD4FF40C
:100EB000806007009FE727009DE7BDE8F183000001
:100EC000000008081C1200203C1E00201002002018
:100ED000180200201C0200201C0A002000C0FDF7A0
:100EE00000E8070800E0070804E00708000002081F
:100EF000DFF80C01DFF80C110860DFF80C01DFF8F7
:100F0000041108607047DFF80401006850F08000A9
:100F1000DFF8F8100860704738B50400042540F683
:100F2000FF7000F079F80500EDB2042D23D1DFF851
:100F3000DC00006850F00200DFF8D0100860DFF835
:100F4000D0000460DFF8C400006850F04000DFF813
:100F5000BC10086040F6FF7000F05EF80500EDB2CE
:100F6000052D08D0DFF8A400006841F6FD710840A7
:100F7000DFF8981008602800C0B232BD70B50400D8
:100F80000D0004260F2000F047F80600F6B2042EEC
:100F900018D1DFF87800006850F00100DFF86C101D
:100FA000086025800F2000F037F80600F6B2052E05
:100FB00008D0DFF85800006841F6FE710840DFF8FD
:100FC0004C1008603000C0B270BD0420114909689F
:100FD000C90702D5012108000FE00E490968490739
:100FE00002D50221080008E00A490968C90602D5AD
:100FF0000321080001E004210800C0B2704700008E
:101000002301674504200240AB89EFCD1020024048
:10101000142002400C20024038B504000425FFF7DC
:10102000D4FF0500EDB2012D08D1002C06D000F050
:101030000CF8FFF7CAFF0500641EF3E7002C01D18E
:10104000052005002800C0B232BD81B0002000900C
:10105000FF2000900098002803D00098401E0090C8
:10106000F8E701B0704750F8041B61B150F8042B49
:10107000D30744BFA9F101039A18002342F8043BA7
:10108000091FFAD1EFE7704782B0002001900020DD
:101090000090DFF8EC02006850F48030DFF8E012D6
:1010A0000860DFF8DC02006810F40030009001985E
:1010B000401C01900098002803D10198B0F5A06F62
:1010C000EFD1DFF8BC020068800302D50120009058
:1010D00001E000200090009801284BD1DFF8A40225
:1010E000006850F01000DFF89C120860DFF89402EE
:1010F000006880088000DFF88C120860A148006852
:1011000050F002009F4908609F4800689E490860AF
:101110009D4800689C4908609B48006850F48060C6
:10112000994908609848006830F47C109649086036
:101130009548006850F4E8109349086090480068AA
:1011400050F080708E4908608D4800688001FBD5A2
:101150008D480068800880008B4908608A480068D4
:1011600050F00200884908608748006810F00C00C1
:101170000828F9D102B0704780B5FFF785FF01BD9F
:1011800080B57F48006850F001007D4908607E48C6
:1011900000687E4908407C490860794800687C49BD
:1011A0000840774908607648006830F48020744928
:1011B00008607548006830F4FE00734908605FF409
:1011C0001F0074490860FFF7D7FF5FF000607249A5
:1011D000086001BD80B5FFF7D3FF01217D2000F03D
:1011E0006CF9012144F2010000F067F901215FF47C
:1011F000602000F071F90121032000F06DF9012158
:101200004FF4006000F059F90121012000F046F987
:1012100001214FF4007000F050F901BD80B54FF48A
:101220000070ADF8000003208DF8020018208DF842
:10123000030000A9594800F06FF90420ADF8000040
:1012400000A9564800F068F94FF48060ADF800003E
:1012500000A9534800F060F94FF48060ADF8000039
:1012600000A9504800F058F94FF48060ADF8000034
:1012700004208DF8030000A9484800F04DF908202B
:10128000ADF8000000A9454800F046F94FF40060B1
:10129000ADF8000000A9424800F03EF94FF40060AC
:1012A000ADF8000000A93F4800F036F901BD00B5D7
:1012B0008FB03D48FFF77CFA3C4804903C480590CD
:1012C00010200690012007900020089080200990AF
:1012D00000200A9000200B9000200C904FF440500A
:1012E0000D9000200E9004A92F48FFF7E5FA314831
:1012F000FFF75EFA2D4804902F48059000200690D5
:101300004FF40070079020200C9004A92948FFF7A3
:10131000D3FA4FF4164000900020ADF804000020EE
:10132000ADF806000020ADF808000020ADF80C0074
:101330000C20ADF80A0000A9204800F089F901212D
:101340001E4800F0DDF940211C4800F0F2F90028A9
:10135000F9D00122C021194800F0E0F90121154817
:10136000FFF7C9FA01211048FFF7C5FA0FB000BD19
:1013700080B5FFF72FFFFFF751FFFFF798FF01BD83
:101380000010024000200240041002400000FFF85C
:10139000FFFFF6FE0810024008ED00E000080140E3
:1013A000000C01400010014044000240043801409C
:1013B00000000020580002401C1A002000380140A4
:1013C00030B400210022002300244B4D2D6815F07D
:1013D0000C0529000D00002D04D0042D05D0082D8A
:1013E00006D026E0454D056025E0444D056022E02D
:1013F000414D2D6815F470152A003F4D2D6815F4E8
:1014000080352B00920C921C002B04D13C4D05FB27
:1014100002F505600CE0384D2D68AD0304D5384D5C
:1014200005FB02F5056003E0344D05FB02F50560A0
:1014300001E0324D0560304D2D6815F0F0052900B2
:101440000909304D4D5D2C000568E54045602A4D89
:101450002D6815F4E0652900090A2A4D4D5D2C0020
:101460004568E5408560244D2D6815F460552900D8
:10147000C90A244D4D5D2C004568E540C5601E4DF0
:101480002D6815F440452900890B1F4D4D5D2C003A
:10149000C568B5FBF4F5056130BC7047C9B20029D9
:1014A00005D01A4A12680243184B1A6004E0174A22
:1014B00012688243154B1A607047C9B2002905D0E3
:1014C000134A12680243124B1A6004E0104A126871
:1014D00082430F4B1A607047C9B2002905D00D4AEC
:1014E000126802430B4B1A6004E00A4A12688243F6
:1014F000084B1A60704700000410024000127A0086
:1015000000093D00000200201402002014100240D7
:10151000181002401C100240F0B5002700220023E2
:1015200000240025002691F803C01CF00F0C67462C
:1015300091F803C05FEACC6C03D591F802C05CEA75
:10154000070791F800C05FEA0C6C3AD0D0F800C0F1
:1015500065465FF0000C6346082B31D25FF0010C4A
:101560001CFA03FC6446B1F800C014EA0C0C624695
:10157000A24223D15FEA830C64465FF00F0C1CFA91
:1015800004FC6646B54317FA04FC5CEA050591F8CD
:1015900003C0BCF1280F06D15FF0010C1CFA03FC5C
:1015A000C0F814C00AE091F803C0BCF1480F05D19F
:1015B0005FF0010C1CFA03FCC0F810C05B1CCBE709
:1015C0000560B1F800C0BCF1FF0F3FDDD0F804C0EA
:1015D00065465FF0000C6346082B36D25FF0010CC5
:1015E00013F1080E1CFA0EFC6446B1F800C014EAB0
:1015F0000C0C6246A24226D15FEA830C64465FF07F
:101600000F0C1CFA04FC6646B54317FA04FC5CEAAE
:10161000050591F803C0BCF1280F07D15FF0010C5C
:1016200013F1080E1CFA0EFCC0F814C091F803C0A8
:10163000BCF1480F07D15FF0010C13F1080E1CFA42
:101640000EFCC0F810C05B1CC6E74560F0BD000092
:101650002DE9F04786B004000D00002600275FF05A
:1016600000085FF000095FF0000AA8890028A24680
:10167000208A06004CF6FF700640E8880643268262
:10168000A08906004EF6F3100640A8882989084371
:10169000698908430643A681A08A06004FF6FF40E9
:1016A0000640A8890643A68200A8FFF789FE1348D2
:1016B000824502D10398070001E002980700192033
:1016C00000FB07F029688900B0FBF1F08046642038
:1016D000B8FBF0F0000106003009642101FB108026
:1016E00081465FEA091032306421B0FBF1F010F05E
:1016F0000F000643268106B0BDE8F08700380140A0
:10170000C9B2002904D0828952F40052828104E0D7
:1017100082894DF6FF731A4082817047D2B2002A47
:1017200003D0838A0B43838202E0838A8B438382C4
:1017300070470200002089B2B1F5007F13880B4288
:1017400002D00123180001E000231800C0B2704746
:10175000816807E002681168536889185B18C360E4
:1017600008320260C2689142F4D04A1C8260087854
:1017700070472DE9FF4D00F1080100910027026834
:10178000520801EBC2010191B84600210291039178
:101790000168490800EBC101406800F0010501F152
:1017A0000804400804EBC00631E000A8FFF7D0FFB2
:1017B0004FFA80FA0AE00098016808180099029030
:1017C000496808180390009808300090029803991F
:1017D0008842F0D0401C029010F801BD47450CD162
:1017E000B44208BF00F01DF8276805B14F44606897
:1017F00000EB070808344745F2D007F801BBBAF1FF
:10180000000F0AD51AF1010AE8D14745CDD1B442FB
:10181000CBD1304604B0BDE8F08DBAF1010AD5D580
:10182000F3E7012000F000B880B5C046C046024A88
:1018300011001820ABBEFBE72600020080B5FFF7C1
:1018400097FDFEF775FC1A48007800282CD119483E
:10185000008880B245F25551884219D11648006877
:10186000164908601448006815490840B0F1005F47
:101870000ED11448006814490860134800681349E1
:1018800008600D48006880F30888104800688047A9
:101890000F48008880B245F25551884204D10D4866
:1018A000008880B2FFF78CFAFEF7F6FDCBE700BFA9
:1018B000381E002000E8070800400008341E002001
:1018C0000000FE2F04400008201E00201C1E0020E7
:1018D00000E0070804E0070810B50749794418310B
:1018E000064C7C44163404E00A68081D51188847E9
:1018F0000146A142F8D110BD0800000030000000F0
:1019000067F7FFFF281C00001C02002000000000F9
:1019100063FEFFFF020000000200000088010000DB
:1019200028000000000000201A0200007047044850
:10193000F3468047034981F308884FF00100584778
:101940002D190008482E0020FFF7F1FF002801D0D4
:10195000FFF7C2FF0020C046C046FFF76FFF00F050
:1019600000F800F001B8000007463846FFF75CFFBA
:10197000FBE77047FEE7FEE7FEE7FEE770477047CC
:1019800070477047C046C046C046C046FFF7DCFF00
:10199000FFF7EFBFFFF7EEBFFFF7EDBFFFF7ECBFBD
:1019A000FFF7EBBFFFF7EABFFFF7E9BFFFF7E8BFBD
:1019B000FFF7E7BFFFF7FEBFFFF7FEBFFFF7FEBF72
:1019C000FFF7FEBFFFF7FEBFFFF7FEBFFFF7FEBF4B
:1019D000FFF7FEBFFFF7FEBFFFF7FEBFFFF7FEBF3B
:1019E000FFF7FEBFFFF7FEBFFFF7FEBFFFF7FEBF2B
:1019F000FFF7FEBFFFF7FEBFFFF7FEBFFFF7FEBF1B
:101A0000FFF7FEBFFFF7FEBFFFF7FEBFFFF7FEBF0A
:101A1000FFF7FEBFFFF7FEBFFFF7FEBFFFF7FEBFFA
:101A2000FFF7FEBFFFF7FEBFFFF7FEBFFFF7FEBFEA
:101A3000FFF7FEBFFFF7FEBFFFF7FEBFFFF7FEBFDA
:101A4000FFF7FEBFFFF7FEBFFFF7FEBFFFF7FEBFCA
:101A5000FFF7FEBFFFF7FEBFFFF7FEBFFFF7FEBFBA
:101A6000FFF7FEBFFFF7FEBFFFF7FEBFFFF7FEBFAA
:101A7000FFF7FEBFFFF7FEBFFFF7FEBFFFF7FEBF9A
:101A8000FFF7FEBFFFF7FEBFFFF7FEBFFFF7FEBF8A
:101A9000FFF7FEBFFFF7FEBFFFF7FEBFFFF7FEBF7A
:101AA000FFF7FEBF07AA550600AAAAEA4A810081ED
:101AB00000810081001501020304010203040607EE
:0C1AC0000809004002080204060800406B
:040000050800198551
:00000001FF
:020000040800F2
:10400000F0240020E94501089D3201089F32010893
:10401000A1320108A3320108A53201080000000006
:10402000000000000000000000000000A9320108AC
:10403000A732010800000000AB320108AD320108D0
:104040000334010805340108073401080934010864
:104050000B3401080D3401080F3401081134010834
:104060001334010815340108173401081934010804
:104070003334010835340108373401083934010874
:104080003B3401083D3401083F3401084134010844
:104090004334010845340108473401084934010814
:1040A0005D3401085F34010861340108633401089C
:1040B000653401088534010887340108A3340108F8
:1040C000A5340108A7340108A9340108AB3401085C
:1040D000AD340108AF340108B134010835350108A9
:1040E00071360108C9360108CB360108CD36010802
:1040F000CF360108D1360108D3360108D53601087C
:10410000D7360108D9360108DB360108DD3601084B
:10411000DF360108E1360108E3360108E53601081B
:10412000E7360108E9360108EB360108ED360108EB
:104130000020DFF8001A08800020DFF8FC19088052
:104140000020DFF8F81908800020DFF8F419087063
:104150000120DFF8F01908700020DFF8EC19087072
:104160000020DFF8E81908705520DFF8841C08707B
:10417000704780B5DFF8D80902F09AF9D0F50070E1
:10418000DFF8B0190880DFF8AC090088B0F5007FCF
:1041900003DB0020DFF89C19088001BD80B5DFF843
:1041A000000B0088002813D00021DFF8A80902F0D6
:1041B00072F9DFF8EC0A0088DFF89C190860012129
:1041C000DFF8900902F067F90020DFF8D41A0880C0
:1041D00001BD70B402004FF6FF7630004AF20106CE
:1041E000330000263400C9B28C4213D2A65C704062
:1041F00000263500082D0BD2C60704D54008400420
:10420000400C584002E040084004400C6D1CF1E7AF
:10421000641CE8E770BC704710B4DFF8B03C9B78D2
:104220009B1C1800DFF814391B88190000231A00A2
:1042300092B280B282420ED289B2002901D0491EC8
:1042400002E040F2FF1319000023DFF8104989B2A1
:104250000B55521CECE700231A0092B280B2824246
:1042600006D20023DFF8644C92B21355521CF4E7D7
:1042700010BC704710B5AA20DFF8281A0870552026
:10428000DFF8201A48700B20DFF8181A8870022017
:10429000DFF8101AC8700120DFF8081A0871012031
:1042A000DFF8001A48710220DFF8F819887103203E
:1042B000DFF8F019C8710420DFF8E819087205204A
:1042C000DFF8E01948720620DFF8D8198872DFF8A5
:1042D000D4098178DFF8CC09FFF77BFF0400DFF811
:1042E000C409C472A4B2200ADFF8B8190873DFF851
:1042F000B4098078801CDFF8A8190880AA20DFF8AC
:104300004018087010BD10B5AA20DFF89819087081
:104310005520DFF8901948702820DFF88819887038
:104320000120DFF88019C8700A20DFF878190871B9
:10433000A020DFF8701948710420DFF8681988712F
:104340000120DFF86019C871DFF82C0A4088DFF817
:1043500054190872DFF8200A408880B2000ADFF89A
:10436000441948720A20DFF83C198872D120DFF81E
:104370003419C8720420DFF82C1908730220DFF802
:1043800024194873DFF8F0098088DFF8181988735A
:10439000DFF8E409808880B2000ADFF80819C873E2
:1043A0000A20DFF800190874D220DFF8F8184874E2
:1043B0000420DFF8F01888740220DFF8E818C874C9
:1043C000DFF8B409C088DFF8DC180875DFF8A80941
:1043D000C08880B2000ADFF8CC1848750A20DFF8E0
:1043E000C41888754420DFF8BC18C8750420DFF8AD
:1043F000B41808760120DFF8AC184876DFF87809A1
:104400000089DFF8A0188876DFF86C09008980B28F
:10441000000ADFF89018C8760A20DFF888180877B5
:10442000D420DFF8801848770420DFF878188877E0
:104430000120DFF87018C877DFF83C094089DFF801
:10444000641881F82000DFF83009408980B2000A42
:10445000DFF8501881F821000120DFF8481881F8B2
:1044600022000220DFF83C1881F823000320DFF847
:10447000341881F824000420DFF8281881F825007A
:10448000DFF8F4088089DFF81C1881F82600DFF8CF
:10449000E808808980B2000ADFF8081881F8270050
:1044A000DFF800088178DFF8FC07FFF792FE0400D0
:1044B000DFF8F00780F82840A4B2200ADFF8E417FC
:1044C00081F82900DFF8DC078078801CDFF8D0173E
:1044D0000880AA20DFF86816087010BD10B4DFF855
:1044E000302D1278552A32D0DFF8E4291278052AC7
:1044F00003D1DFF8E029110002E0DFF8DC29110028
:1045000000221000C0B210281DDADFF8C029C0B2A6
:10451000032303FB0022D278DFF8B039C0B20324B2
:1045200004FB00331B791B0213EB0242DFF89C39BA
:10453000C0B2032404FB00335B799A18C0B241F87F
:104540002020401CDEE75522DFF8C43C1A7010BC66
:104550007047DFF8F4190978552971D0DFF86C1924
:104560004979A0290FD1DFF86419497ADFF85C296D
:10457000127A11EB0221080080B2002803D080B229
:10458000DFF8C8190860DFF84419C97AD1290BD1BE
:10459000DFF83819C97BDFF83429927B11EB02214F
:1045A0000800DFF8AC190880DFF82019C97DD5298B
:1045B0000FD1DFF81819C97EDFF81029927E11EBB0
:1045C0000221080080B2002803D080B2DFF8F4197D
:1045D0000860DFF8F818497FD42910D1DFF8EC180B
:1045E00091F82110DFF8E42892F8202011EB022145
:1045F000080080B2002802D0DFF8CC190880DFF86C
:10460000CC18497CD6290ED1DFF8C018497DDFF8D7
:10461000BC28127D11EB0221080080B2002802D0D4
:10462000DFF8A8190880DFF8A8190978A52903D0B0
:104630005521DFF89C2911700321DFF8BC2D117082
:10464000704710B5DFF88408007901284ED1DFF8F3
:104650007C084079DFF87C1908705520DFF878195C
:1046600008700020DFF8741908705520DFF8701901
:104670000870AA20DFF82C1608705520DFF82416E1
:104680004870DFF848088078DFF818168870DFF87F
:104690003C08C07850F08000DFF80816C870DFF8DA
:1046A0002C080079DFF8FC150871DFF82008407944
:1046B000DFF8F0154871DFF8EC058178DFF8E405E4
:1046C000FFF787FD0400DFF8DC058471A4B2200A3F
:1046D000DFF8D015C871DFF8CC058078801CDFF8D2
:1046E000C0150880AA20DFF85814087010BD10B556
:1046F000DFF8D8070079DFF8C0190870DFF8B809CB
:10470000007800280BD10020DFF8B01908800020C5
:10471000DFF8AC1908800020DFF8A8190880012014
:10472000DFF8401A0870DFF8400A0088DFF83C1A0A
:104730000880AA20DFF86C1508705520DFF8641592
:104740004870DFF888078078DFF858158870DFF840
:104750007C07C07850F08000DFF84815C870DFF89B
:104760006C070079DFF83C150871DFF838058178AF
:10477000DFF83005FFF72DFD0400DFF82805447150
:10478000A4B2200ADFF81C158871DFF818058078BC
:10479000801CDFF80C150880AA20DFF8A41308702D
:1047A00010BD10B5DFF824070079102867D1DFF8B5
:1047B0001C074079DFF8B8190870DFF81007807916
:1047C000DFF8501A0870DFF80407C079DFF8481ADC
:1047D00008700120DFF88C1908700120DFF8D81864
:1047E0000870AA20DFF8BC1408705520DFF8B41454
:1047F0004870DFF8D8068078DFF8A8148870DFF8F2
:10480000CC06C07850F08000DFF89814C870DFF84C
:10481000BC060079DFF88C140871DFF8B006407927
:10482000DFF880144871DFF8A4068079DFF874148B
:104830008871DFF89806C079DFF86814C871DFF86E
:104840008C06007ADFF85C140872DFF8580481786F
:10485000DFF85004FFF7BDFC0400DFF848044472A1
:10486000A4B2200ADFF83C148872DFF8380480789C
:10487000801CDFF82C140880AA20B149087010BDF4
:1048800080B5DFF85C07007855280BD1DFF83C06CF
:104890000079DFF888190870DFF830060079DFF852
:1048A00080190870DFF824060079DFF8501A0870C4
:1048B000DFF818060079DFF8441D087001F0B0FF3A
:1048C00001BD10B5DFF848090078552845D0DFF85C
:1048D000FC050079DFF8281A08705520DFF8301938
:1048E0000870AA20DFF8BC1308705520DFF8B41355
:1048F0004870DFF8D8058078DFF8A8138870DFF8F3
:10490000CC05C07850F08000DFF89813C870DFF84D
:10491000BC050079DFF88C130871DFF8B005407929
:10492000DFF880134871DFF87C038178DFF87403C7
:10493000FFF74FFC0400DFF86C038471A4B2200A77
:10494000DFF86013C871DFF85C038078801CDFF843
:1049500050130880AA207A4908700020DFF87C16DE
:1049600008705520DFF87816087010BD10B5DFF814
:104970005C050079DFF85415497910EB0120DFF868
:1049800084190860AA20C74908705520C549487095
:10499000DFF838058078C3498870DFF83005C078C3
:1049A00050F08000BF49C870DFF820050079BD498C
:1049B0000871DFF818054079BA494871B94881781B
:1049C000B848FFF706FC0400B6488471A4B2200A78
:1049D000B449C871B3488078801CB1490880AA20C6
:1049E0005749087010BD10B5DFF8E00400790128C0
:1049F0000ED15520DFF8181808700020DFF80019D4
:104A00000870DFF8F8090088DFF8F41908800FE073
:104A10000020DFF8BC1508700320DFF8DC190870EF
:104A20005520DFF8EC1708700920DFF8D41808705B
:104A3000AA209C49087055209A494870DFF88C04D8
:104A4000807898498870DFF88404C07850F080003E
:104A50009449C870DFF87404007992490871DFF84E
:104A60006C0440798F4948718E4881788D48FFF7F2
:104A7000B0FB04008B488471A4B2200A8949C87134
:104A800088488078801C86490880AA202C490870B4
:104A900010BD10B5DFF834040079DFF8641A08702F
:104AA0000420DFF8601A08700420DFF86C1A087020
:104AB0005520DFF81C1508700020DFF85417087027
:104AC0000020DFF8181508705520DFF8141508705D
:104AD000AA2074490870552072494870DFF8EC0329
:104AE000807870498870DFF8E403C07850F0800067
:104AF0006C49C870DFF8D40300796A490871DFF89F
:104B0000CC03407967494871664881786548FFF76A
:104B100060FB040063488471A4B2200A6149C87133
:104B200060488078801C5E490880AA20044908708B
:104B300010BD0000DC130020E4130020E01300206F
:104B4000A0140020E6140020D8140020D91400205E
:104B50005800024044000240480002407006002015
:104B600010B5DA480079DFF89C1908700020DFF8EA
:104B7000241A08705520DFF8D0130870DFF8E80514
:104B80000088DFF8141A08800020DFF8501408703D
:104B90005520DFF84C1408705520DFF834140870E5
:104BA000AA20DFF85C1A08700020DFF8581A087095
:104BB000C6488079C549497910EB01200400DFF827
:104BC00044090078002804D1A4B2DFF8F803046097
:104BD00034E0DFF830090078012803D1DFF8E8037A
:104BE00004802BE0DFF81C090078022803D1DFF8ED
:104BF000DC03048022E0DFF80C090078032803D1ED
:104C0000A4B2D248046019E0DFF8F808007804285C
:104C100003D1DFF8EC08047010E0DFF8E808007852
:104C2000142803D1DFF85C0A048007E0DFF8D40819
:104C30000078152802D1DFF8500A0470AA2019491B
:104C40000870552017494870A04880781549887029
:104C50009E48C07850F080001249C8709B48007987
:104C600010490871994840790E49487197488079F0
:104C70000C4988710B4881780A48FFF7AAFA0400AA
:104C80000848C471A4B2200A064908720548807811
:104C9000801C03490880AA20DFF8741D087010BD2D
:104CA000E81300200000002010B5AA20DFF8881AC1
:104CB00008705520DFF8801A487084488078DFF843
:104CC000781A88708148C07850F08000DFF8681A40
:104CD000C870DFF8680A0078DFF85C1A08710020F5
:104CE000DFF8541A4871DFF8500A8178DFF8480A73
:104CF000FFF76FFA0400DFF8400A8471A4B2200ABB
:104D0000DFF8341AC871DFF8300A8078801CDFF8C9
:104D1000301A0880AA20DFF8F81C087010BD552052
:104D2000DFF8201A08700020DFF8E81C08707047D0
:104D30005520DFF8101A08700020DFF8D81C087022
:104D400070475520DFF8FC1908700020DFF8C41CFC
:104D5000087070475520DFF8EC1908700020DFF864
:104D6000B41C087070475520DFF8D819087000206F
:104D7000DFF8A01C08707047FC12002010B5AA20B4
:104D8000DFF8B41908705520DFF8AC1948704F48A7
:104D90008078DFF8A41988704C48C07850F0800003
:104DA000DFF89419C870C4480078DFF88C190871CE
:104DB0000020DFF884194871DFF87C098178DFF87A
:104DC0007809FFF706FA0400DFF86C098471A4B2D1
:104DD000200ADFF86419C871DFF85C098078801C4C
:104DE000DFF85C190880AA20DFF8241C087010BDC9
:104DF000E214002010B5AA20DFF83C1908705520F5
:104E0000DFF8341948700820DFF82C1988700F205B
:104E1000DFF82419C870DFF83C0A0078552808D15B
:104E2000DFF8E006007850F08000DFF80C19087118
:104E300005E0DFF8D0060078DFF8FC180871DFF82D
:104E4000180A008880B2000ADFF8EC184871DFF811
:104E5000080A0088DFF8E0188871DFF8A8060078F3
:104E6000042812D10020DFF8D0184871DFF890062E
:104E70000078062803DB0120DFF884160870DFF8CD
:104E800080060078DFF8B01888718B480078DFF86A
:104E9000A818C871DFF8A0088178DFF89C08FFF730
:104EA00098F90400DFF890080472A4B2200ADFF831
:104EB00088184872DFF880088078801CDFF8801836
:104EC0000880AA20DFF8481B087010BD700A002077
:104ED000AD1400207C1100203C11002010B5AA2048
:104EE000DFF8541808705520DFF84C184870062079
:104EF000DFF8441888701020DFF83C18C8700020D4
:104F0000DFF8341808710020DFF82C184871DFF83A
:104F100028088178DFF82008FFF75BF90400DFF844
:104F200018088471A4B2200ADFF80C18C871DFF8E1
:104F300008088078801CDFF808180880AA20DFF8AD
:104F4000D01A087010BD0000DA14002014140020DC
:104F50006414002010B5AA20DFF8DC170870552073
:104F6000DFF8D41748700620DFF8CC17887043208C
:104F7000DFF8C417C8705520DFF8BC170871DFF8D8
:104F800084050078DFF8B0174871DFF8AC07817846
:104F9000DFF8A407FFF71DF90400DFF89C07847110
:104FA000A4B2200ADFF89017C871DFF88C07807868
:104FB000801CDFF88C170880AA20DFF8541A0870CC
:104FC00010BD000018140020881400209614002042
:104FD000AC140020BA140020CE140020B914002014
:104FE000B714002010B5AA20DFF84C170870552020
:104FF000DFF8441748700A20DFF83C178870442017
:10500000DFF83417C870DFF8100A0078DFF82817C7
:105010000871DFF8F0040078DFF81C1748712648A3
:105020000078DFF814178871DFF82C08008880B248
:10503000000ADFF80417C871DFF81C080088DFF8E1
:10504000F8160872DFF8BC040078042812D100209A
:10505000DFF8E416C871DFF8A8040078062803DB3F
:105060000120DFF89C140870DFF894040078DFF862
:10507000C8160872DFF8DC070078DFF8BC16487243
:10508000DFF8B4068178DFF8B006FFF7A2F8040075
:10509000DFF8A4068472A4B2200ADFF89C16C87256
:1050A000DFF894068078801CDFF894160880AA2028
:1050B000DFF85C19087010BDC614002082140020AF
:1050C000801400208414002010B5AA20DFF8681690
:1050D00008705520DFF8601648700620DFF8581673
:1050E00088704020DFF85016C8705520DFF8481649
:1050F00008710020DFF840164871DFF83C0681781F
:10510000DFF83406FFF765F80400DFF82C06847139
:10511000A4B2200ADFF82016C871DFF81C068078D8
:10512000801CDFF81C160880AA20DFF8E41808703D
:10513000DFF8E8080078401CDFF8E0180870DFF8B6
:10514000DC08007805280BDB0020DFF8D018087099
:105150005520DFF8F01508700020DFF8B818087047
:1051600010BD0000C71400203E1400207C14002055
:105170009413002010B5AA20DFF8BC150870552044
:10518000DFF8B41548700620DFF8AC1588704020B1
:10519000DFF8A415C870AA20DFF89C15087100205C
:1051A000DFF894154871DFF890058178DFF88805FD
:1051B000FFF70FF80400DFF880058471A4B2200A1D
:1051C000DFF87415C871DFF870058078801CDFF88F
:1051D00070150880AA20DFF838180870DFF840083A
:1051E0000078401CDFF838180870DFF834080078C1
:1051F00005280BDB0020DFF8281808705520DFF8A1
:10520000441508700020DFF80C18087010BD00006D
:10521000AE1400209C130020A4130020A41400202E
:10522000BB14002010B5AA20DFF80C15087055201B
:10523000DFF8041548700920DFF8FC14887042205C
:10524000DFF8F414C870DFF8DC070078002804D118
:10525000AA20DFF8E414087103E05520DFF8D81421
:105260000871DFF8C0070078DFF8CC144871DFF868
:10527000B8070078DFF8C0148871DFF8B00700784D
:10528000DFF8B414C871DFF8A8070078DFF8A814B5
:105290000872DFF8A4048178DFF89C04FEF799FF18
:1052A0000400DFF894044472A4B2200ADFF88814E2
:1052B0008872DFF884048078801CDFF8841408800A
:1052C000AA20DFF84C170870DFF868070078401C48
:1052D000DFF860170870DFF85C07007805280BDB43
:1052E0000020DFF8501708705520DFF858140870B8
:1052F0000020DFF82017087010BD0000BC1400204B
:10530000AF1400201C14002010B5AA20DFF82814C8
:1053100008705520DFF8201448700920DFF81814B1
:1053200088701420DFF81014C87076480078DFF811
:1053300008140871DFF82005008880B2000ADFF841
:10534000F8134871DFF810050088DFF8EC13887156
:105350006C48007804280FD10020DFF8DC13487176
:1053600067480078062802DB012065490870644818
:105370000078DFF8C4138871DFF8D8040078DFF80C
:10538000B813C871DFF89C060078DFF8AC13087218
:10539000DFF8A4038178DFF8A003FEF71AFF04000A
:1053A000DFF894034472A4B2200ADFF88C138872E9
:1053B000DFF884038078801CDFF884130880AA203B
:1053C000DFF84C160870DFF870060078401CDFF834
:1053D00068160870DFF86006007805280BDB0020EF
:1053E000DFF8541608705520DFF8581308700020B5
:1053F000DFF82016087010BDA81400203C1400200F
:105400005C14002010B5AA20CB4908705520CA4969
:1054100048700620C84988704120C749C8700020DC
:10542000C54908710020C4494871C3488178C24801
:10543000FEF7CFFE0400C0488471A4B2200ABE4922
:10544000C871BD488078801CBD490880AA20DFF85B
:10545000C0150870DFF8E4050078401CDFF8DC15A3
:105460000870DFF8D805007805280ADB0020DFF88F
:10547000CC1508705520B34908700020DFF894154A
:10548000087010BD10B5DFF8B8050079DFF8B01569
:10549000497910EB0120DFF8AC150880AA20A64955
:1054A00008705520A4494870DFF894058078A24917
:1054B0008870DFF88C05C07850F080009E49C87075
:1054C000DFF87C0500799C490871DFF874054079A4
:1054D00099494871984881789748FEF77AFE040008
:1054E00095488471A4B2200A9349C8719248807883
:1054F000801C93490880AA20DFF81415087010BD9D
:10550000CC140020B514002055208E4908700020CE
:10551000DFF8001508707047B614002010B5DFF8EA
:1055200020050079CB4908705520DFF81C1508705C
:10553000AA208149087055207F494870DFF800058E
:1055400080787D498870DFF8F804C07850F08000DA
:105550007949C870DFF8E804007977490871DFF805
:10556000E004407974494871734881787248FEF7C5
:1055700030FE040070488471A4B2200A6E49C871DC
:105580006D488078801C6E490880AA20DFF880145E
:10559000087010BDDC1400209214002010B5AA2061
:1055A00065490870552064494870DFF89404807894
:1055B00061498870DFF88804C07850F080005E4947
:1055C000C870A44800785C49087100205A494871A5
:1055D000594881785848FEF7FCFD0400564884710C
:1055E000A4B2200A5449C87153488078801C544999
:1055F0000880AA20DFF8F41C087010BDBD1400203C
:10560000A7140020B814002010B55520DFF83C1472
:1056100008700320DFF838140870DFF8240440799C
:10562000DFF830140870AA20434908705520424919
:105630004870DFF80C0480783F498870DFF8000478
:10564000C07850F080003C49C870AA203A490871DF
:10565000AA2039494871384881783748FEF7B9FDA2
:10566000040035488471A4B2200A3349C871324815
:105670008078801C32490880AA20DFF8701C0870EE
:1056800010BD000044140020C114002070B5DFF8E4
:10569000B0030079002817D1DFF8A4034079032173
:1056A00090FBF1F039300400B4F13900C0B244008D
:1056B000E4B2200002F08BFC0600012E10D0E4B210
:1056C000200002F084FC0BE00020DFF88C1308704F
:1056D000002002F07CFC0600012E01D002F064FBE9
:1056E000AA2015490870552013494870D44880787D
:1056F00011498870D248C07850F080000E49C870B7
:10570000AA200D490871AA200B4948710A488178DE
:105710000948FEF75EFD050007488571ADB2280A0D
:105720000549C87104488078801C05490880AA2072
:10573000DFF8B81B087070BD00000020D4140020F2
:10574000E8130020D8140020BD484079DFF8A01BE2
:105750000978491C884204D1B9484079DFF8901B88
:1057600008705520DFF88C1B0870DFF88C0B008860
:10577000DFF8881B0880DFF8780B00781430DFF83A
:10578000801B08705520DFF87C1B08700020DFF8B4
:10579000781B08705520A0490870DFF8540B00787A
:1057A000042807D10020DFF85C1B08700020DFF818
:1057B000401B0870704710B5A1480079652803DBCD
:1057C0006420A449487003E09D480079A1494870CD
:1057D0005520DFF8381B08700120DFF8341B0870F3
:1057E000AA20DFF8301B08705520DFF8281B48700E
:1057F00093488078DFF81C1B88709148C07850F07F
:105800008000DFF8101BC8708D480079DFF8041B9A
:1058100008718B484079DFF8FC1A4871DFF8F40A08
:105820008178DFF8F00AFEF7D4FC0400DFF8E40A20
:105830008471A4B2200ADFF8DC1AC871DFF8D40A38
:105840008078801CDFF8D01A0880AA20DFF89C1A24
:10585000087010BDDB1400205A14002010B5AA20D7
:10586000DFF8B01A08705520DFF8A81A487074489D
:105870008078DFF8A01A88707148C07850F08000F6
:10588000DFF8901AC8700020DFF8881A087101202C
:10589000DFF8801A4871DFF87C0A8178DFF8740A33
:1058A000FEF797FC0400DFF86C0A8471A4B2200AAA
:1058B000DFF8601AC871DFF85C0A8078801CDFF8B6
:1058C000581A0880AA20DFF8241A087010BD10B5F5
:1058D0005B480079022856D159484079552852D161
:1058E00002F03EFCDFF8340A02F04EFC0021DFF843
:1058F0002C0A02F0B8FCDFF8280A02F045FC00216F
:10590000DFF8200A02F0AFFC0021DFF8140A02F0F1
:10591000AAFC02F030FCAA20DFF8F8190870552024
:10592000DFF8F019487046488078DFF8E819887089
:105930004348C07850F08000DFF8D819C8700220C2
:10594000DFF8D0190871AA20DFF8C8194871DFF80C
:10595000C4098178DFF8BC09FEF73BFC0400DFF8DE
:10596000B4098471A4B2200ADFF8A819C871DFF85D
:10597000A4098078801CDFF8A0190880AA20DFF82D
:105980006C190870FEE710BD10B52D48007903288A
:105990003DD12B484079552839D1AA20DFF8741918
:1059A00008705520DFF86C19487025488078DFF8BA
:1059B000641988702248C07850F08000DFF85419CC
:1059C000C8701F480079DFF84C1908711C484079ED
:1059D000DFF840194871DFF83C098178DFF83409B5
:1059E000FEF7F7FB0400DFF82C098471A4B2200A4B
:1059F000DFF82019C871DFF81C098078801CDFF8F7
:105A000018190880AA20DFF8E4180870FEE710BD16
:105A1000A0140020D9140020B7140020E71400209F
:105A2000E8140020C6140020941300209C130020CA
:105A3000A4130020E9140020EA140020EB14002035
:105A4000700A00207E140020CE140020AC14002028
:105A5000A814002086140020D31400202DE9F0475C
:105A60004FF4005000F027FD002818D00020814698
:105A70001FFA89F9B9F12B0F09DA0020DFF8941821
:105A80001FFA89F909F8010019F10109F0E700206E
:105A9000DFF8581808704FF4005000F021FDDFF8CF
:105AA0004C080078002840F01E84DFF87C0800884D
:105AB000DFF878180988884200F0A180DFF87008C4
:105AC0000078AA2840F09B80DFF868080078AA28B0
:105AD00052D0DFF864080088DFF860180880DFF82B
:105AE000480800880600DFF8440800880700B6B2BE
:105AF000BFB2BE4204D216F50070C01B804601E062
:105B0000F01B8046B9461FFA89F91FFA88F8BFB220
:105B100017EB080081452FDADFF82408DFF80C18AE
:105B20000988085CAA2815D1DFF800080088401C05
:105B3000C005C00D0400B6B2A4B2A6421CD0DFF866
:105B40000008A4B2205C552804D1AA20DFF8E4178D
:105B5000087011E0DFF8D4070088401CDFF8CC178C
:105B60000880DFF8C8070088C005C00DDFF8BC1743
:105B7000088019F10109C6E7DFF8B8070078AA28FC
:105B80003DD1DFF8A40700880600DFF8A0070088F1
:105B9000B6B2864207D216F50070DFF89017098872
:105BA000401A804604E0DFF884070088301A8046F7
:105BB0001FFA88F8B8F1070F21DBDFF870070088BB
:105BC000801CC005C00D8246DFF874071FFA8AFAF0
:105BD0001AF80000801C1FFA88F880B280450ED3A6
:105BE0005520DFF850170870AA20DFF85817087002
:105BF000DFF850070078AA2840F0E28200E0DFE2F8
:105C00005520DFF840170870AA20DFF82417087025
:105C1000DFF818070088C01CC005C00D0500DFF8BC
:105C20002007ADB2285CFF2800F08180DFF8FC0679
:105C30000088801CC005C00D0400DFF80407A4B272
:105C4000205CDFF8E81609880818801C8246DFF817
:105C5000DC06008881461FFA89F91FFA8AFAD145C5
:105C60002BD21FFA89F9B9F5007F10DADFF8D006D8
:105C70001FFA89F919F80000DFF8CC161FFA89F924
:105C8000DFF8A8261288B9EB0202505412E0DFF8C0
:105C9000B0061FFA89F919EB0000B0F50070007822
:105CA000DFF8A4161FFA89F9DFF880261288B9EB0D
:105CB0000202505419F10109CDE7DFF8700600889F
:105CC000DFF884168978891C0818DFF860160880C8
:105CD000DFF858060088C005C00DDFF850160880B0
:105CE000DFF864068178DFF86006FEF772FA824614
:105CF0005046DFF85416DFF850269278515CC0B257
:105D000088420DD11FFA8AFA5FEA1A20DFF83816A6
:105D1000DFF83426927851184978C0B2884200D012
:105D200069E2DFF82406C07801281DD10FE0DFF812
:105D3000FC050088C01DDFF8F4150880DFF8EC05CD
:105D40000088C005C00DDFF8E415088053E2042088
:105D5000DFF8F8150870FEF7FCFBDFF8DC050088BB
:105D6000DFF8EC15088029E2DFF8DC05C0780228AE
:105D700026D1DFF8D4050079012810D10120DFF801
:105D8000CC150870FEF776FADFF8AC050088DFF86E
:105D9000C01508805520DFF8981508700EE2022023
:105DA000DFF8A8150870FEF7AEFADFF88C0500885A
:105DB000DFF89C1508805520DFF874150870FDE1A8
:105DC000DFF88405C07803280CD10320DFF87C15A8
:105DD0000870FEF783FBDFF860050088DFF87015B8
:105DE0000880EBE1DFF86005C078042810D10620B8
:105DF000DFF858150870FEF724FCDFF83C05008832
:105E0000DFF84C1508805520DFF824150870D5E11F
:105E1000DFF83405C078052810D10520DFF82C15EF
:105E20000870FEF7BEFCDFF810050088DFF82015CB
:105E300008805520DFF8F8140870BFE1DFF8080586
:105E4000C078062810D10720DFF800150870FEF78B
:105E50004EFCDFF8E4040088DFF8F41408805520D5
:105E6000DFF8CC140870A9E1DFF8DC04C07808285A
:105E70000CD10820DFF8D4140870FEF701FDDFF81C
:105E8000B8040088DFF8C814088097E1DFF8B80488
:105E9000C078092810D10920DFF8B0140870FEF787
:105EA00010FDDFF894040088DFF8A4140880552062
:105EB000DFF87C14087081E1DFF88C04C0780A28D0
:105EC00010D10A20DFF884140870FEF74FFDDFF8C8
:105ED00068040088DFF8781408805520DFF8501433
:105EE00008706BE1DFF86004C0780B2810D10B203C
:105EF000DFF858140870FEF776FDDFF83C040088E0
:105F0000DFF84C1408805520DFF82414087055E1A0
:105F1000DFF83404C0780C2810D10C20DFF82C14E2
:105F20000870FEF7B6FDDFF810040088DFF82014D3
:105F300008805520DFF8F81308703FE1DFF8080407
:105F4000C0780D2810D10D20DFF800140870FEF77E
:105F500007FEDFF8E4030088DFF8F413088055201B
:105F6000DFF8CC13087029E1DFF8DC03C0780E28D5
:105F700010D10E20DFF8D4130870FEF795FEDFF87D
:105F8000B8030088DFF8C81308805520DFF8A01395
:105F9000087013E1DFF8B003C0780F280CD10F2090
:105FA000DFF8A8130870FEF7BAFEDFF88C0300884C
:105FB000DFF89C13088001E1DFF88C03C07810281B
:105FC0000CD11020DFF884130870FEF7B1FEDFF863
:105FD00068030088DFF878130880EFE0DFF86803D3
:105FE000C078112810D11120DFF860130870FEF777
:105FF000C5FEDFF844030088DFF8541308805520FD
:10600000DFF82C130870D9E0DFF83C03C0781328C0
:1060100010D11320DFF834130870FFF733FADFF8DC
:1060200018030088DFF8281308805520DFF80013D4
:106030000870C3E0DFF81003C07894280CD1142056
:10604000DFF808130870FFF75FFADFF8EC0200884A
:10605000DFF8FC120880B1E0DFF8EC02C078152808
:106060000DD11520DFF8E4120870FFF757FAB24897
:106070000088B74908805520AD4908709EE0B248B5
:10608000C07816280CD11620B0490870FFF786FAA0
:10609000A9480088AE4908805520A54908708DE0C0
:1060A000A948C07817280CD11720A8490870FFF715
:1060B000ABFAA1480088A649088055209C49087081
:1060C0007CE0A148C0781B280CD11B209F49087098
:1060D000FFF7DCFA984800889D49088055209449CC
:1060E00008706BE09848C0781D2809D11D20974999
:1060F0000870FFF729FB90480088954908805DE00B
:106100009148C078C02809D1402090490870FEF716
:1061100018FE894800888E4908804FE08A48C07878
:10612000C12809D1412089490870FEF713FE824831
:1061300000888749088041E08348C0789A2809D1BF
:10614000422082490870FEF70EFE7B480088804995
:10615000088033E07C48C078212809D121207B4980
:106160000870FFF728FB744800887949088025E00B
:106170007548C0781C2802D1FFF706FC1EE0724863
:10618000C078242809D1242070490870FFF766FBE5
:10619000694800886E49088010E06B48C078232861
:1061A00009D1232069490870FFF791FB62480088F4
:1061B0006749088002E0FF2064490870FEF72CF868
:1061C000FA215E48008802F0F7F8AA2809D1552084
:1061D0005C4908705520574908705748008857494E
:1061E00008804B215A48008802F0E6F8AA2802D11C
:1061F000AA204F49087057480078AA2873D14C4804
:106200000078AA286FD164215148008802F0D4F8A0
:10621000AA2868D15048007801280DD063D30328FC
:1062200024D016D305282FD027D307283AD032D32D
:1062300009284BD03DD356E0FEF7DCFD3E480088F0
:10624000434908805520434908700020424908709E
:1062500049E0FEF743FE384800883D490880552054
:106260003C49087000203C4908703CE0FEF72CFFD8
:10627000314800883649088035E0FEF77BFF2E481C
:106280000088334908802EE0FFF73EF82A4800884E
:106290002F49088027E0FFF7B5F8274800882C49E8
:1062A000088020E0FEF7BEFF2348008828490880C8
:1062B00019E0FEF74FFE2048008825490880552048
:1062C000244908700020244908700CE0FEF78AFE7B
:1062D000194800881E49088055201E490870002072
:1062E0001D490870FFE7BDE8F0870000A0140020FA
:1062F000DD140020DE1400203E140020981400203D
:10630000AF140020AE140020B9140020CA140020DD
:10631000C714002000000020E813002000E8070850
:1063200000E0070804E00708DC130020E013002069
:10633000E5140020E21400203C1400209A140020F0
:1063400070060020E3140020700A0020E4140020EE
:106350009C140020D8140020D9140020016849089A
:10636000490001600021016000214160002181603D
:106370000021C16001006D4A891A18D014391DD05E
:10638000143922D0143927D014392CD0143931D0F3
:10639000143936D04FF46272891A39D014393ED08C
:1063A000143943D0143948D014394DD053E06049E2
:1063B000096851F00F015E4A11604CE05C490968C0
:1063C00051F0F0015A4A116045E05949096851F409
:1063D0007061574A11603EE05549096851F47041B7
:1063E000534A116037E05249096851F47021504A0C
:1063F000116030E04E49096851F470014C4A116057
:1064000029E04B49096851F07061494A116022E066
:106410004849096851F00F01464A11601BE045499F
:10642000096851F0F001434A116014E041490968DC
:1064300051F470613F4A11600DE03E49096851F422
:1064400070413C4A116006E03A49096851F47021F4
:10645000384A1160FFE7704710B4002203681A0041
:106460006FF30E128B680C6A23430C6923434C694B
:1064700023438C692343CC6923434C6A23438C6AAE
:1064800023431A430260CB6843600B6883604B6808
:10649000C36010BC7047C9B2002904D0026852F032
:1064A0000102026003E00268520852000260704775
:1064B000406880B27047010000200022CB0003D565
:1064C0001D4B1B681A0002E01C4B1B681A000A4295
:1064D00002D00123180001E000231800C0B2704769
:1064E000C10002D51349086001E0114908607047F6
:1064F000010000200022CB0003D50F4B1B681A00BF
:1065000002E00E4B1B681A000A4202D00123180059
:1065100001E000231800C0B27047C10002D5054950
:10652000086001E00249086070470000080002406E
:106530000400024004040240000402400000024043
:1065400010B5040014F001028021DFF8240C02F0E1
:1065500016F800222021DFF8180C02F010F80122B2
:106560002021DFF80C0C02F00AF810BD70B5040011
:106570000D0000200600F6B2EDB2AE4206D234FAAB
:1065800006F0C0B2FFF7DCFF761CF4E770BD70B513
:1065900004000D0018212800FFF7E8FFAF4801F0C4
:1065A000EBFF060064F30306310089B2AB4801F04B
:1065B000EFFF01220121AA4801F0E1FF0122102191
:1065C000DFF8AC0B01F0DBFF00220121A44801F051
:1065D000D6FF00221021DFF8980B01F0D0FF70BD2C
:1065E00010B5012201219E4801F0C9FF00221021AF
:1065F000DFF87C0B01F0C3FF00210020FFF7C7FF8D
:1066000000224021DFF8680B01F0B9FF0020DFF81D
:10661000641B0870DFF8600B0088DFF8601B0880DF
:106620000320DFF85C1B08700020DFF8581B08709F
:10663000A520DFF8541B08700020DFF8501B0870FD
:106640000320DFF84C1B08700020DFF8481B08709F
:106650000020DFF8441B08700C20DFF8401B087096
:106660000820DFF83C1B08700020DFF8381B08709A
:106670000020DFF8341B088000200400E4B2102C56
:1066800023DADFF8280BE4B2032101FB04000078D1
:10669000DFF8181BE4B2032202FB04114978090257
:1066A00011EB0040DFF8041BE4B2032202FB0411EB
:1066B00089780818DFF8F81AE4B241F824000020BD
:1066C000DFF8F01A0860641CD8E7DFF8EC0ADFF89E
:1066D000EC1A0860DFF8E00ADFF8E01A4860DFF83B
:1066E000E00ADFF8D81A8860DFF8D40ADFF8CC1A9D
:1066F000C860DFF8C40ADFF8C41A0861DFF8B80A16
:10670000DFF8B81A4861DFF8B80ADFF8B01A886114
:10671000DFF8AC0ADFF8A41AC861DFF89C0ADFF8DA
:106720009C1A0862DFF8900ADFF8901A4862DFF8D6
:10673000900ADFF8881A8862DFF8840ADFF87C1A8A
:10674000C862DFF8740ADFF8741A0863DFF8680AB1
:10675000DFF8681A4863DFF8680ADFF8601A8863B0
:10676000DFF85C0ADFF8541AC863DFF8540ADFF870
:10677000541A0860DFF8480ADFF8481A4860DFF862
:10678000380ADFF8401A8860DFF82C0ADFF8341A7C
:10679000C860DFF82C0ADFF82C1A0861DFF8200A3D
:1067A000DFF8201A4861DFF8100ADFF8181A88614C
:1067B000DFF8040ADFF80C1AC861DFF8040ADFF812
:1067C000041A0862DFF8F809DFF8F8194862DFF800
:1067D000E809DFF8F0198862DFF8DC09DFF8E4196E
:1067E000C862DFF8DC09DFF8DC190863DFF8D009DC
:1067F000DFF8D0194863DFF8C009DFF8C8198863EB
:10680000DFF8B409DFF8BC19C8635520DFF8B81900
:1068100008700020DFF8B419087000F001F810BD0E
:106820000020DFF8AC1908705520DFF89C190870BB
:106830005520DFF8541908700020DFF84819087057
:10684000AA20DFF8901908700020DFF8801908707E
:106850000020DFF8A81C08707047000000100140FD
:10686000000C01402DE9F84FDFF8080900780028F6
:1068700040F09081DFF808090078032803D1DFF8A1
:106880003C09050002E0DFF83C090500DFF8F408E8
:10689000007800280DD0DFF8E8080078032804D13C
:1068A0000420DFF8DC18087003E00320DFF8D018BC
:1068B00008705021DFF82009008801F07DFDAA282A
:1068C00015D1DFF818090088DFF80C190880DFF807
:1068D00010090078401CDFF808190870DFF800097B
:1068E0000078202803DB0020DFF8F4180870DFF8B8
:1068F000F0080078002803D1DFF8E8080700F5E089
:10690000DFF8DC080078012803D1DFF8DC08070095
:10691000ECE0DFF8CC080078022803D1DFF8CC08DF
:106920000700E3E0DFF8B8080078032803D1DFF8B8
:10693000C0080700DAE0DFF8A8080078042803D1CF
:10694000DFF8B0080700D1E0DFF8940800780528E8
:1069500003D1DFF8AC0B0700C8E0DFF8840800784B
:10696000062803D1DFF89C0B0700BFE0DFF87008B2
:106970000078072803D1DFF8900B0700B6E0DFF8B6
:1069800060080078082803D1DFF8800B0700ADE02D
:10699000DFF84C080078092803D1DFF8740B0700F2
:1069A000A4E0DFF83C0800780A2803D1DFF8640B84
:1069B00007009BE0DFF8280800780B2803D1DFF8F8
:1069C000580B070092E0DFF8180800780C2803D174
:1069D000DFF8480B070089E0DFF8040800780D288D
:1069E00003D1DFF83C0B070080E0DFF8F407007804
:1069F0000E2803D1DFF82C0B070077E0DFF8E00763
:106A000000780F2803D1DFF8200B07006EE0DFF8D5
:106A1000D0070078102803D1DFF8100B070065E0DD
:106A2000DFF8BC070078112803D1DFF8040B07005A
:106A30005CE0DFF8AC070078122803D1DFF8F40A35
:106A4000070053E0DFF898070078132803D1DFF838
:106A5000E80A07004AE0DFF888070078142803D125
:106A6000DFF8D80A070041E0DFF87407007815283E
:106A700003D1DFF8CC0A070038E0DFF864070078BC
:106A8000162803D1DFF8BC0A07002FE0DFF8500713
:106A90000078172803D1DFF8B00A070026E0DFF8F6
:106AA00040070078182803D1DFF8A00A07001DE08E
:106AB000DFF82C070078192803D1DFF8940A0700C3
:106AC00014E0DFF81C0700781A2803D1DFF8840AE5
:106AD00007000BE0DFF8080700781B2803D1DFF878
:106AE000780A070002E0DFF8740A070000208346F6
:106AF0005FFA8BFBBBF1100F1CDA5FFA8BFB0320F4
:106B000000FB0B7000785FFA8BFB032101FB0B711C
:106B10004978090211EB00405FFA8BFB032101FB6E
:106B20000B71897808185FFA8BFB45F82B001BF175
:106B3000010BDDE7002083465FFA8BFBBBF1100FF2
:106B400019DA5FFA8BFB55F82B008246DFF8100A42
:106B50000078012806D1DFF80C0A5FFA8BFB40F8B9
:106B60002BA005E0DFF8000A5FFA8BFB40F82BA0B2
:106B70001BF1010BE0E7DFF8E8090078012804D1F8
:106B80000220DFF8DC190870EFE20120DFF8D019ED
:106B90000870EAE2DFF8DC05007801282ED1002039
:106BA00083465FFA8BFBBBF1100F18DADFF8B009F0
:106BB0000078012808D17FF07F40DFF8A8195FFA3C
:106BC0008BFB41F82B0007E07FF07F40DFF898193E
:106BD0005FFA8BFB41F82B001BF1010BE1E7DFF8BB
:106BE00080090078012804D10220DFF874190870A8
:106BF000BBE20120DFF868190870B6E2DFF874051F
:106C00000078022800F0B182DFF8680500780328D8
:106C100040F0B880DFF86C0500788146DFF84C0959
:106C20000500DFF84C090078022852D00020834686
:106C30005FFA8BFB5FFA89F9CB453BD25FFA89F9A2
:106C4000B9F1100F1CDA5FFA89F9B9F1030F11DB02
:106C50005FFA8BFB5FFA89F9B9F10300834503DB27
:106C60007FF07F40824610E05FFA8BFB55F82B00E7
:106C700082460AE05FFA8BFB55F82B00824604E05F
:106C80005FFA8BFB55F82B008246DFF8D4080078BA
:106C9000012806D1DFF8CC085FFA8BFB40F82BA067
:106CA00005E0DFF8C4085FFA8BFB40F82BA01BF16E
:106CB000010BBDE7DFF8A8080078012804D1022005
:106CC000DFF89C18087050E20120DFF89418087073
:106CD0004BE2002083465FFA8BFB5FFA89F9CB45D4
:106CE00041D25FFA89F9B9F1100F21DADBF10F0017
:106CF000804618F00F085FFA89F9B9F1030F11DB2C
:106D00005FFA8BFB5FFA89F9B9F10300834503DB76
:106D10007FF07F40824611E05FFA88F855F828003E
:106D200082460BE05FFA88F855F82800824605E0B5
:106D3000D8465FFA8BFB55F82B008246DFF8200817
:106D40000078012806D1DFF81C085FFA88F840F8BF
:106D500028A005E0DFF810085FFA88F840F828A0BE
:106D60001BF1010BB7E7DFF8F8070078012804D121
:106D70000220DFF8EC170870F7E10120DFF8E017D8
:106D80000870F2E1DFF8EC030078042856D1DFF850
:106D9000E4070078552810D1002081465FFA89F970
:106DA000B9F1100F09DA0020DFF8CC175FFA89F982
:106DB00041F8290019F10109F0E7DFF8C403007870
:106DC000012803D1DFF8B407050007E0DFF8B003BE
:106DD0000078022802D1DFF8A807050000208346CA
:106DE0005FFA8BFBBBF1100F80F2BF815FFA8BFB68
:106DF00055F82B00DFF88C175FFA8BFB51F82B103E
:106E000008408246DFF870075FFA8BFB50F82B00D2
:106E100050EA0A0A5FFA8BFBBBF1010F02D1022094
:106E2000804608E05FFA8BFBBBF1020F02D1012024
:106E3000804600E0D8461BF1010BD1E7CD48007831
:106E4000052858D1DFF82C070078552822D10020DA
:106E500083465FFA8BFBBBF1100F17DAD4485FFA59
:106E60008BFB50F82B00C00D0090D1485FFA8BFBD4
:106E700050F82B004000060000983043CC495FFAE0
:106E80008BFB41F82B001BF1010BE2E70020DFF840
:106E9000E4160870BA480078012803D1DFF8DC0650
:106EA000050006E0B6480078022802D1DFF8D006D7
:106EB0000500002083465FFA8BFBBBF1100F80F2C8
:106EC0005481BB485FFA8BFB50F82B0082465FFA77
:106ED0008BFBBBF1010F02D10220804608E05FFA74
:106EE0008BFBBBF1020F02D10120804600E0D846A7
:106EF0001BF1010BDFE79F480078062875D1DFF80A
:106F00007406007855283AD1002081465FFA89F945
:106F1000B9F1100F08DA0020A5495FFA89F941F8A4
:106F2000290019F10109F1E79F48008881465FFABD
:106F300089F99D480088D0F1100081451BDA9A48F4
:106F400000880400E4B298480088D0F11800844218
:106F50000EDA97485FFA89F950F829000121A1401B
:106F6000084393495FFA89F941F82900641CE9E76D
:106F700019F10109DBE70020DFF8F81508708048F7
:106F80000078012803D1DFF8F405050006E07C480D
:106F90000078022802D1DFF8E805050000208346CA
:106FA0005FFA8BFBBBF1100F80F2DF8080485FFA45
:106FB0008BFB50F82B005FFA8BFB55F82B10084029
:106FC00082465FFA8BFBBBF1010F02D102208046A3
:106FD00008E05FFA8BFBBBF1020F02D10120804673
:106FE00000E0D8461BF1010BDAE762480078072879
:106FF00045D1644800788146DFF87005050000201F
:1070000083465FFA8BFB5FFA89F9CB4528D25FFA9A
:1070100089F9B9F1100F08DADBF10F0080465FFA49
:1070200088F855F82800824605E0D8465FFA8BFBC1
:1070300055F82B008246DFF828050078012806D194
:10704000DFF820055FFA88F840F828A005E0DFF8AF
:1070500018055FFA88F840F828A01BF1010BD0E76B
:10706000DFF8FC040078012804D10220DFF8F014D6
:1070700008707AE00120DFF8E814087075E03D48F8
:107080000078082871D1DFF8E4040500DFF8E40493
:107090000078552869D1002083465FFA8BFBBBF14D
:1070A000100F2DDA5FFA8BFBBBF1050F09D05FFAE9
:1070B0008BFBBBF1060F04D05FFA8BFBBBF1070F14
:1070C00011D15FFA8BFB55F82B000721DFF8C82A96
:1070D00092F9002091400843DFF8C01A5FFA8BFB59
:1070E00041F82B0009E05FFA8BFB55F82B00DFF825
:1070F000AC1A5FFA8BFB41F82B001BF1010BCCE7BC
:107100000020DFF870140870002083465FFA8BFBC4
:10711000BBF1100F1BDADFF8840A5FFA8BFB50F823
:107120002B008246DFF838040078012806D1DFF80A
:1071300034045FFA8BFB40F82BA005E0DFF828044D
:107140005FFA8BFB40F82BA01BF1010BDEE7DFF8A9
:1071500010040078012804D10220DFF8041408701C
:1071600003E00120DFF8F8130870BDE8F18F00009C
:1071700000080140A81400203E14002062140020E2
:10718000AD140020A9140020AC140020B514002078
:10719000B6140020CC140020BF140020B01400202E
:1071A000B1140020AA1400208A1400201C3F0108FA
:1071B000BC120020FC110020AAAAAA00BC100020CA
:1071C00055555500FC100020B7140020B8140020BD
:1071D000B9140020A7140020601400203C140020E3
:1071E000E01400204C3F01087C3F0108AC3F01083F
:1071F000DC3F01080C40010880B5DFF8B40A0078D4
:10720000012868D1DFF8AC0A0078401CDFF8A41A26
:107210000870DFF8A40A0078DFF8981A0978884225
:1072200003D20020DFF88C1A08700020DFF8801AE3
:1072300008700120CE4908700120DFF8801A08701C
:107240005520DFF87C1A08700020DFF8781A0870E3
:107250000020AA490870DFF85C0A0078002804D0F2
:10726000DFF8500A0078032825D1DFF85C0A00789F
:10727000022809D0DFF8540A0088DFF8541A088081
:107280000120DFF8441A0870DFF83C0A0078022871
:1072900008D1AA20DFF83C1A08700120DFF8381A5C
:1072A000087085E0AA20DFF82C1A08700820DFF8A3
:1072B000281A08707CE00320DFF8201A0870AA2042
:1072C000DFF8101A08700520DFF80C1A087000208B
:1072D0008A4908706CE0DFF8D8090078022867D185
:1072E000DFF8D0090078002807D0DFF8C809007857
:1072F000401EDFF8C019087005E0DFF8BC0900780F
:10730000DFF8B01908700020DFF8A4190870022017
:10731000974908700220DFF8A41908705520DFF89B
:10732000A01908700020DFF89C190870002073492C
:107330000870DFF880090078002804D0DFF87409AD
:107340000078032825D1DFF880090078022809D0C9
:10735000DFF878090088DFF8781908800120DFF865
:1073600068190870DFF860090078022808D1AA209F
:10737000DFF8601908700120DFF85C19087017E069
:10738000AA20DFF8501908700820DFF84C1908709F
:107390000EE00320DFF844190870AA20DFF8341942
:1073A00008700520DFF83019087000205349087074
:1073B000DFF82C090078552828D10020DFF82019A3
:1073C000087000204D490870DFF8E80800780028B0
:1073D00004D0DFF8E008007803280FD1DFF8E808D0
:1073E0000078022812D0DFF8E4080088DFF8E018FF
:1073F00008800120DFF8D018087007E0AA20DFF825
:10740000D41808700920DFF8D01808703B480078BD
:1074100000284ED1DFF89C080078002806D1DFF85C
:10742000C4080068DFF8C018088042E0DFF884086C
:107430000078012806D1DFF8B4080088DFF8A81822
:10744000088036E0DFF86C080078022806D1DFF803
:10745000A0080088DFF8901808802AE0DFF85408B8
:107460000078032806D1DFF88C080068DFF8781868
:1074700008801EE0DFF83C080078042819D0DFF807
:1074800034080078142809D1DFF86C0800886421DA
:1074900090FBF1F0DFF8501808800AE0DFF81408DC
:1074A0000078152805D1DFF854080078DFF838187F
:1074B0000880DFF824080078052809D0DFF81808CC
:1074C0000078012804D0DFF810080078092808D1D6
:1074D00055200A490870DFF8F4070088DFF8201803
:1074E00008804FF4FA51DFF81808008800F064FFB4
:1074F000AA2802D100200149087001BDDC14002037
:107500003C4001086C4001089C400108CC40010847
:10751000FC4001082C4101085C4101088C41010834
:10752000BC410108EC4101081C4201084C42010821
:107530007C420108AC420108DC4201080C4301080E
:107540003C4301086C4301089C430108CC430108FB
:10755000FC4301082C4401085C4401088C440108E8
:10756000B31400207C1200203C120020FC0F0020ED
:10757000BC140020AB140020480E00203C1000205A
:107580007C100020C80E00202DE9F04F89B0DFF8F4
:1075900030070078552840F0C481DFF828070078CC
:1075A000002840F0BE8100208DF80100DFF8380788
:1075B000008800040AD5DFF8300700884004400C3A
:1075C000DFF82417088001208DF80100DFF8180784
:1075D00000880A2190FBF1F201FB12008DF80200F5
:1075E000DFF8040700880A2190FBF1F081465FFA7A
:1075F00089F90A2099FBF0F100FB1199DFF8E80600
:107600000088642190FBF1F082465FFA8AFA0A2032
:107610009AFBF0F100FB11AADFF8CC0600884FF4CA
:107620007A7190FBF1F083465FFA8BFB0A209BFB9B
:10763000F0F100FB11BB5FFA8BFBBBF1000F1DD11A
:107640005FFA8AFABAF1000F12D15FFA89F9B9F13B
:10765000000F05D00A20824602208DF8000010E0BD
:107660000A2081460A20824601208DF8000008E0A9
:107670000A20834603208DF8000002E004208DF8E4
:1076800000009DF80100012801D10B208246002056
:10769000070000208046DFF81C060078002807D18C
:1076A000DFF860060600002007000120804680E029
:1076B000DFF800060078012807D1DFF84C06060045
:1076C000002007000120804673E0DFF8E80500781D
:1076D000022807D1DFF83406060000200700012049
:1076E000804666E0DFF8CC050078032807D1DFF894
:1076F00020060600002007000120804659E0DFF840
:10770000B4050078042834D1DFF808060078012891
:1077100003D1DFF80406060026E0DFF8F80500785C
:10772000022803D1DFF8F40506001DE0DFF8E405C8
:107730000078032803D1DFF8E805060014E0DFF83D
:10774000D4050078042803D1DFF8D80506000BE043
:10775000DFF8C0050078052803D1DFF8CC05060066
:1077600002E0DFF8C8050600002007000020804680
:107770001FE0DFF840050078062807D1DFF8B005E4
:107780000600002007000420804612E0DFF82405F0
:107790000078142804D1002007000020804608E06B
:1077A000DFF810050078152803D109200700042010
:1077B0008046FFB2002F09D19DF800000621484302
:1077C000D0F11800022190FBF1F0C719DFF8640531
:1077D000050000200400E4B2102C17DAE4B2032004
:1077E00000FB04600078E4B2032101FB04614978E6
:1077F000090211EB0040E4B2032101FB0461897826
:107800000818E4B245F82400641CE4E7DFF8B80483
:107810000078012809D1DFF89C04007800283ED0C8
:10782000DFF890040078032839D0DFF88804007866
:10783000042834D000200400E4B2072C3BDADFF83F
:10784000F8045FFA8BFB072101FB0B00E4B2205C1C
:10785000DFF8E4145FFA8AFA072202FB0A11E4B2A5
:10786000615C090311EB8040DFF8CC145FFA89F901
:10787000072202FB0911E4B2615C10EB8110DFF812
:10788000B8149DF80220072303FB0211E4B2615CE7
:10789000081801A9E4B241F82400641CCCE70020D8
:1078A0000400E4B2072C06DA002001A9E4B241F892
:1078B0002400641CF5E700200400E4B2072C15DA6C
:1078C000E4B25FFA88F818EB0400E4B25FFA88F8D3
:1078D00018EB040155F8211001AAE4B252F8242053
:1078E000BA40114345F82010641CE6E7DFF8D803DE
:1078F0000078012811D1DFF8BC030078002804D0FB
:10790000DFF8B0030078032807D11020DFF82C142B
:1079100008700820DFF8C4130870AA20DFF8A0134D
:107920000870DFF8A0030078552840F0CA80DFF81F
:1079300004040500DFF808040078002803D1DFF80C
:10794000040406008FE0DFF8F8030078012803D173
:10795000DFF8CC03060086E0DFF8E40300780228B5
:1079600003D1DFF8B40306007DE0DFF8D40300782C
:10797000032803D1DFF8D003060074E0DFF8C0036A
:107980000078042803D1DFF89C0306006BE0DFF8E1
:10799000B0030078052803D1DFF8B003060062E0E9
:1079A000DFF89C030078062803D1DFF8A403060063
:1079B00059E0DFF88C030078072803D1DFF894033F
:1079C000060050E0DFF878030078082803D1DFF8DC
:1079D0008803060047E0DFF868030078092803D130
:1079E000DFF8780306003EE0DFF8540300780A2849
:1079F00003D1DFF83803060035E0DFF844030078F0
:107A0000142803D1DFF8580306002CE0DFF8300318
:107A10000078152803D1DFF84C03060023E0DFF8D7
:107A200020030078162803D1DFF83C0306001AE093
:107A3000DFF80C030078172803D1DFF830030600C5
:107A400011E0BF480078182803D1DFF824030600AE
:107A500009E0BB480078FF2803D1DFF818030600CF
:107A600001E0C548060000200400E4B2102C17DA3B
:107A7000E4B2032000FB04600078E4B2032101FBC0
:107A800004614978090211EB0040E4B2032101FBD3
:107A9000046189780818E4B245F82400641CE4E71E
:107AA000A7480078002806D1A5208549087007203E
:107AB0008A49087002E0032088490870AA20814999
:107AC000087086480078072813D144F62061AB4837
:107AD000008800F071FCAA280BD1002078490870BA
:107AE00003207E4908700A20954908705520754981
:107AF000087009B0BDE8F08F80B5A148007855281E
:107B000003D076480078002844D16D480078A52835
:107B100018D08A480078102802DB102087490870A6
:107B200097480078552803D062480078002819D17A
:107B300082480078102815DA80480078401C7F4978
:107B400008700FE07D480078102804DA7B48007840
:107B5000401C7A49087079480078102802DB002020
:107B6000764908700C480078152808DA0A48007829
:107B7000401C0949087055208249087005E0002022
:107B80000549087055207F490870FEF76BFE5520A7
:107B90007D49087001BD0000BE140020BC1100200A
:107BA00038B577480078552803D04C48007800282D
:107BB0006FD17548007855286BD17448007800283B
:107BC00015D173480078012803D1724872490860C2
:107BD0000AE06F480078022803D170486E490860B7
:107BE00002E06F486C4908605520684908703348C6
:107BF0000078022803D039480078072818D169484E
:107C000000780500E84310F00F0563480068EDB206
:107C100050F82500040021002800C0B2FEF7B7FC90
:107C2000604800780F280FD10020244908700BE02D
:107C3000594800685B49097850F821000400210088
:107C400058480078FEF7A3FC56480078401C554978
:107C5000087022480078002803D0204800780128C6
:107C60000AD150480078102820DB00204D490870C8
:107C700000204649087019E04A4800782F490978E1
:107C8000884213D300204749087000203F490870FC
:107C90000CE000210020FEF77AFC0020414908702A
:107CA00000203A49087000203949087031BD0000B1
:107CB000BB140020B5140020B6140020BD14002011
:107CC000AC140020AE140020BF1400203C1400208F
:107CD00042140020D8140020D9140020A814002039
:107CE000C0140020181400205A140020881400200A
:107CF000961400201414002044140020C114002005
:107D0000941400209C3A01083C3D0108CC3A01083B
:107D10006C3A0108CC1400208C3B01084C3C010853
:107D20005C3B0108EC3B01081C3C01089C3D010840
:107D3000FC3A0108FC0F0020E4390108A9140020D6
:107D4000AF1400202C3B0108BC3B01087C3C01081F
:107D5000AC3C0108DC3C01080C3D01086C3D01080D
:107D6000CC3D0108FC3D01082C3E01085C3E0108A9
:107D70008C3E0108EC3E0108BC3E01085C1400206A
:107D8000B7140020AB140020B8140020B414002055
:107D9000B31400203C120020081400207C120020A4
:107DA000FC110020B214002010B584B00124A620DC
:107DB000ADF8040001208DF8080000AA002101A8F8
:107DC00001F09EF9C548007850F00100C3490870E1
:107DD0009DF80000E52840F0F98000222E2101A83E
:107DE00001F0CAF90400012CC0F2F08000AA2E2193
:107DF00001A801F085F99DF80000002840F0E68018
:107E00002B22312101A801F0B7F90400012CC0F2A6
:107E1000DD8000AA312101A801F072F99DF800006F
:107E20002B2840F0D3800A222C2101A801F0A4F9CC
:107E30000400012CC0F2CA8000AA2C2101A801F084
:107E40005FF99DF800000A2840F0C080A44802783D
:107E50001D2101A801F090F90400012CC0F2B680A8
:107E600000AA1D2101A801F04BF99DF800009C49D2
:107E70000978884240F0AA809A480278212101A816
:107E800001F07AF90400012CC0F2A08000AA21219F
:107E900001A801F035F99DF800009249097888425F
:107EA00040F094800022222101A801F065F904002D
:107EB000012CC0F28B8000AA222101A801F020F938
:107EC0009DF80000002840F081800F222A2101A89F
:107ED00001F052F90400012C78DB00AA2A2101A844
:107EE00001F00EF99DF800000F286FD100221E212D
:107EF00001A801F041F90400012C67DB00AA1E2152
:107F000001A801F0FDF89DF8000000285ED10022D4
:107F10001F2101A801F030F90400012C56DB00AA52
:107F20001F2101A801F0ECF89DF8000000284DD1B8
:107F30000022202101A801F01FF90400012C45DBDB
:107F400000AA202101A801F0DBF89DF8000000281C
:107F50003CD100222F2101A801F00EF90400012CD0
:107F600034DB00AA2F2101A801F0CAF89DF8000017
:107F700000282BD108222D2101A801F0FDF80400D2
:107F8000012C23DB00AA2D2101A801F0B9F89DF8EE
:107F9000000008281AD140222E2101A801F0ECF897
:107FA0000400012C12DB00AA2E2101A801F0A8F880
:107FB0009DF80000402809D14848007810F0FE00E4
:107FC00046490870002048490870FFE71FBD7CB58E
:107FD00004000126A620ADF8000001208DF8040061
:107FE0003E48007850F001003C49087000222E21E4
:107FF00000A801F0C1F80600012E01DA002032E0ED
